:1000000000000020FD040000EF6C0000F56C000013
:10001000FB6C0000016D0000076D00000000000097
:100020000000000000000000000000006D0500005E
:100030000D6D0000000000001306000073060000B4
:10004000AD6B0000BB6B0000C96B0000D76B0000FC
:10005000E56B0000F36B0000016C00000F6C00000A
:100060001D6C00002B6C0000396C0000476C000018
:10007000556C0000636C0000716C00007F6C000028
:100080008D6C0000136D0000196D00001F6D0000E5
:10009000256D00002B6D0000316D0000376D0000F4
:1000A0003D6D0000436D0000496D00004F6D000084
:1000B000556D00005B6D0000616D00009B6C0000E1
:1000C000676D0000A96C00006D6D0000B76C00004A
:1000D000736D0000C56C0000796D00007F6D00003D
:1000E000856D00008B6D0000916D0000976D000024
:1000F0009D6D0000A36D0000A96D0000AF6D0000B4
:100100000D0500000D0500000D0500000D050000A7
:10011000B56D0000BB6D0000C16D0000C76D000033
:10012000CD6D0000D36D0000D96D0000DF6D0000C3
:10013000E56D0000EB6D0000F16D0000F76D000053
:10014000FD6D0000036E0000D36C0000096E00001E
:10015000E16C00000F6E0000156E00001B6E0000C9
:10016000216E0000276E00002D6E0000336E00002F
:10017000396E00003F6E0000456E00004B6E0000BF
:10018000516E00000D0500000D0500000D0500007A
:100190000D0500000D0500000D0500000D05000017
:1001A0000D0500000D0500000D0500000D05000007
:1001B0000D0500000D0500000D0500000D050000F7
:1001C0000D0500000D0500000D0500000D050000E7
:1003F0000D0500000D0500000D050000FFFFFFFFCB
:10040000FFFFFFFFFFFFFFFFFFFFFFFFFEFFFFFFFD
:1004400010B5054C237833B9044B13B10448AFF30E
:1004500000800123237010BDB80E002000000000B2
:1004600088E0000008B5034B1BB103490348AFF314
:10047000008008BD00000000BC0E002088E00000E5
:10048000A3F5803A704700BF174B002B08BF134BF2
:100490009D46FFF7F5FF00218B460F461348144A8F
:1004A000121A0AF027FC0E4B002B00D098470D4B78
:1004B000002B00D098470020002104000D000D48BB
:1004C000002802D00C480AF0F1F80AF035F92000B3
:1004D000290002F0EDFE0AF0F5F800BF0000080068
:1004E00000000000D96F000000000020B80E0020BE
:1004F000D8600020ADA60000E5A6000072B606F0A8
:1005000085F806F01BF862B6FFF7BEFFFFF7FEBFE7
:1005100080F309887047EFF309807047684680F3DD
:1005200009885A480078C00714BF0220032080F3CE
:1005300014887047DFF858C1EFF305831B0618BF16
:100540006047EFF31483DB0708BF604700DF7047A5
:10055000DFF840C1EFF305831B0618BF6047EFF3D8
:100560001483DB0708BF604700DF7047EFF30980A3
:10057000816911F8021CE1BB90E80F1010B5E0474B
:10058000BDE81040EFF3098C8CE80700424B93E87C
:100590000600914208BF704741B91EF0100F16D1F6
:1005A0003E49086820F00100086010E01EF0100FBE
:1005B00006BF2CED108A0120002081F825002CE9CF
:1005C000F00FC1F828C00CB407F08EFF0CBC1A6005
:1005D000D2F828C0BCE8F00F92F8250000280EBF22
:1005E0006FF0020E6FF0120EBCEC108A8CF30988CB
:1005F000704710B52A4A1268914209D8294C54F81C
:10060000214090E80F10A047EFF3098C8CE80F0011
:1006100010BD10B507F0DAFEBDE810401E4B93E8A0
:100620000600914208BF7047EFF3098C1EF0100FCF
:1006300006BF2CED108A0120002081F825002CE94E
:10064000F00FC1F828C00CB407F04EFF0CBC1A60C4
:10065000D2F828C0BCE8F00F92F8250000280EBFA1
:100660006FF0020E6FF0120EBCEC108A8CF309884A
:10067000704710B507F01AFFFFF7CEBF10B507F0AF
:1006800013FF07F013FFFFF7C7BF0000C4D300003C
:10069000597D0000757D00007460002034EF00E09B
:1006A00000000000FCFFFFFF81F0004102E000BFFE
:1006B00083F0004330B54FEA41044FEA430594EA22
:1006C000050F08BF90EA020F1FBF54EA000C55EA5D
:1006D000020C7FEA645C7FEA655C00F0E2804FEA2E
:1006E0005454D4EB5555B8BF6D420CDD2C4480EA10
:1006F000020281EA030382EA000083EA010180EA40
:10070000020281EA0303362D88BF30BD11F0004F8D
:100710004FEA01314FF4801C4CEA113102D04042C3
:1007200061EB410113F0004F4FEA03334CEA1333FE
:1007300002D0524263EB430394EA050F00F0A78016
:10074000A4F10104D5F1200E0DDB02FA0EFC22FA11
:1007500005F2801841F1000103FA0EF2801843FA05
:1007600005F359410EE0A5F120050EF1200E012AF6
:1007700003FA0EFC28BF4CF0020C43FA05F3C01834
:1007800051EBE37101F0004507D54FF0000EDCF1AD
:10079000000C7EEB00006EEB0101B1F5801F1BD356
:1007A000B1F5001F0CD349085FEA30004FEA3C0C5A
:1007B00004F101044FEA445212F5800F80F09A8050
:1007C000BCF1004F08BF5FEA500C50F1000041EB54
:1007D000045141EA050130BD5FEA4C0C404141EB58
:1007E0000101013C28BFB1F5801FE9D291F0000F53
:1007F00004BF01460020B1FA81F308BF2033A3F102
:100800000B03B3F120020CDA0C3208DD02F1140CF8
:10081000C2F10C0201FA0CF021FA02F10CE002F133
:100820001402D8BFC2F1200C01FA02F120FA0CFC2C
:10083000DCBF41EA0C019040E41AA2BF01EB045175
:10084000294330BD6FEA04041F3C1CDA0C340EDC73
:1008500004F11404C4F1200220FA04F001FA02F3B6
:1008600040EA030021FA04F345EA030130BDC4F174
:100870000C04C4F1200220FA02F001FA04F340EA69
:100880000300294630BD21FA04F0294630BD94F01A
:10089000000F83F4801306BF81F480110134013D01
:1008A0004EE77FEA645C18BF7FEA655C29D094EA72
:1008B000050F08BF90EA020F05D054EA000C04BFF0
:1008C0001946104630BD91EA030F1EBF00210020DB
:1008D00030BD5FEA545C05D14000494128BF41F07A
:1008E000004130BD14F580043CBF01F5801130BDDE
:1008F00001F0004545F0FE4141F470014FF0000069
:1009000030BD7FEA645C1ABF194610467FEA655C19
:100910001CBF0B46024650EA013406BF52EA0335BB
:1009200091EA030F41F4002130BD00BF90F0000FA9
:1009300004BF0021704730B54FF4806404F13204E5
:100940004FF000054FF0000150E700BF90F0000F9E
:1009500004BF0021704730B54FF4806404F13204C5
:1009600010F0004548BF40424FF000013EE700BF95
:1009700042004FEAE2014FEA31014FEA02701FBF25
:1009800012F07F4393F07F4F81F06051704732F057
:100990007F4208BF704793F07F4F04BF41F40021AE
:1009A000704730B54FF4607401F0004521F000410C
:1009B0001CE700BF50EA010208BF704730B54FF096
:1009C00000050AE050EA010208BF704730B511F097
:1009D000004502D5404261EB41014FF4806404F1CF
:1009E00032045FEA915C3FF4D8AE4FF003025FEA55
:1009F000DC0C18BF03325FEADC0C18BF033202EBD9
:100A0000DC02C2F1200300FA03FC20FA02F001FA32
:100A100003FE40EA0E0021FA02F11444BDE600BFD5
:100A200070B54FF0FF0C4CF4E06C1CEA11541DBF84
:100A30001CEA135594EA0C0F95EA0C0F00F0DEF84F
:100A40002C4481EA030621EA4C5123EA4C5350EA34
:100A5000013518BF52EA033541F4801143F4801385
:100A600038D0A0FB02CE4FF00005E1FB02E506F016
:100A70000042E0FB03E54FF00006E1FB03569CF06B
:100A8000000F18BF4EF0010EA4F1FF04B6F5007F71
:100A900064F5407404D25FEA4E0E6D4146EB0606E3
:100AA00042EAC62141EA55514FEAC52040EA5E506C
:100AB0004FEACE2EB4F1FD0C88BFBCF5E06F1ED816
:100AC000BEF1004F08BF5FEA500E50F1000041EB4D
:100AD000045170BD06F0004646EA010140EA0200FA
:100AE00081EA0301B4EB5C04C2BFD4EB0C0541EA1C
:100AF000045170BD41F480114FF0000E013C00F331
:100B0000AB8014F1360FDEBF002001F0004170BD54
:100B1000C4F10004203C35DA0C341BDC04F114046D
:100B2000C4F1200500FA05F320FA04F001FA05F2F9
:100B300040EA020001F0004221F0004110EBD370C6
:100B400021FA04F642EB06015EEA430E08BF20EAF2
:100B5000D37070BDC4F10C04C4F1200500FA04F395
:100B600020FA05F001FA04F240EA020001F0004127
:100B700010EBD37041F100015EEA430E08BF20EA9A
:100B8000D37070BDC4F1200500FA05F24EEA020EE2
:100B900020FA04F301FA05F243EA020321FA04F011
:100BA00001F0004121FA04F220EA020000EBD370C8
:100BB0005EEA430E08BF20EAD37070BD94F0000FC8
:100BC0000FD101F00046400041EB010111F4801FFC
:100BD00008BF013CF7D041EA060195F0000F18BFAD
:100BE000704703F00046520043EB030313F4801FE9
:100BF00008BF013DF7D043EA0603704794EA0C0FA3
:100C00000CEA135518BF95EA0C0F0CD050EA4106B8
:100C100018BF52EA4306D1D181EA030101F0004135
:100C20004FF0000070BD50EA410606BF104619465D
:100C300052EA430619D094EA0C0F02D150EA013669
:100C400013D195EA0C0F05D152EA03361CBF1046AA
:100C500019460AD181EA030101F0004141F0FE4149
:100C600041F470014FF0000070BD41F0FE4141F4CD
:100C7000780170BD70B54FF0FF0C4CF4E06C1CEACD
:100C800011541DBF1CEA135594EA0C0F95EA0C0F82
:100C900000F0A7F8A4EB050481EA030E52EA03353D
:100CA0004FEA013100F088804FEA03334FF080555E
:100CB00045EA131343EA12634FEA022245EA11158B
:100CC00045EA10654FEA00260EF000419D4208BF3C
:100CD000964244F1FD0404F5407402D25B084FEAE9
:100CE0003202B61A65EB03055B084FEA32024FF495
:100CF00080104FF4002CB6EB020E75EB030E22BFF2
:100D0000B61A754640EA0C005B084FEA3202B6EBB1
:100D1000020E75EB030E22BFB61A754640EA5C0060
:100D20005B084FEA3202B6EB020E75EB030E22BFF0
:100D3000B61A754640EA9C005B084FEA3202B6EBF1
:100D4000020E75EB030E22BFB61A754640EADC00B0
:100D500055EA060E18D04FEA051545EA16754FEA12
:100D600006164FEAC30343EA52734FEAC2025FEA30
:100D70001C1CC0D111F4801F0BD141EA00014FF0BF
:100D800000004FF0004CB6E711F4801F04BF014390
:100D90000020B4F1FD0C88BFBCF5E06F3FF6AFAEAC
:100DA000B5EB030C04BFB6EB020C5FEA500C50F13C
:100DB000000041EB045170BD0EF0004E4EEA1131BF
:100DC00014EB5C04C2BFD4EB0C0541EA045170BDC6
:100DD00041F480114FF0000E013C90E645EA060E0A
:100DE0008DE60CEA135594EA0C0F08BF95EA0C0F38
:100DF0003FF43BAF94EA0C0F0AD150EA01347FF480
:100E000034AF95EA0C0F7FF425AF104619462CE756
:100E100095EA0C0F06D152EA03353FF4FDAE1046B9
:100E2000194622E750EA410618BF52EA43067FF40A
:100E3000C5AE50EA41047FF40DAF52EA43057FF49A
:100E4000EBAE12E74FF0FF3C06E000BF4FF0010CA5
:100E500002E000BF4FF0010C4DF804CD4FEA410C09
:100E60007FEA6C5C4FEA430C18BF7FEA6C5C1BD0D6
:100E700001B050EA410C0CBF52EA430C91EA030F57
:100E800002BF90EA020F0020704710F1000F91EAB4
:100E9000030F58BF994208BF90422CBFD8176FEA82
:100EA000E37040F0010070474FEA410C7FEA6C5C50
:100EB00002D150EA013C07D14FEA430C7FEA6C5C57
:100EC000D6D152EA033CD3D05DF8040B704700BF83
:100ED0008446104662468C461946634600E000BFD1
:100EE00001B5FFF7B7FF002848BF10F1000F01BDA3
:100EF0004DF808EDFFF7F4FF0CBF012000205DF86E
:100F000008FB00BF4DF808EDFFF7EAFF34BF0120F2
:100F100000205DF808FB00BF4DF808EDFFF7E0FF8B
:100F200094BF012000205DF808FB00BF4DF808EDDC
:100F3000FFF7CEFF94BF012000205DF808FB00BF43
:100F40004DF808EDFFF7C4FF34BF012000205DF825
:100F500008FB00BF4FEA410C7FEA6C5C02D150EA0B
:100F6000013C0AD14FEA430C7FEA6C5C02D152EAA1
:100F7000033C02D14FF0000070474FF00100704772
:100F80004FEA410212F5001215D211D56FF47873B1
:100F9000B3EB625212D94FEAC12343F0004343EA54
:100FA000505311F0004F23FA02F018BF404270472F
:100FB0004FF00000704750EA013005D111F00040B9
:100FC00008BF6FF0004070474FF00000704700BF4F
:100FD0004A0011D212F5001211D20DD56FF47873B8
:100FE000B3EB62520ED44FEAC12343F0004343EA0D
:100FF000505323FA02F070474FF00000704750EA58
:10100000013002D14FF0FF3070474FF000007047C1
:101010004FEA4102B2F1E04324BFB3F5001CDCF11A
:10102000FE5C0DD901F0004C4FEAC0024CEA507052
:10103000B2F1004F40EB830008BF20F00100704781
:1010400011F0804F21D113F13872BCBF01F0004084
:10105000704741F480114FEA5252C2F11802C2F1B6
:10106000200C10FA0CF320FA02F018BF40F0010037
:101070004FEAC1234FEAD32303FA0CFC40EA0C00E9
:1010800023FA02F34FEA4303CCE77FEA625307D126
:1010900050EA01331EBF4FF0FE4040F4400070475D
:1010A00001F0004040F0FE4040F40000704700BFF7
:1010B00053B94AB9002908BF00281CBF4FF0FF31BF
:1010C0004FF0FF3001F0C0B8ADF1080C6DE904CE6F
:1010D00000F006F8DDF804E0DDE9022304B0704713
:1010E0002DE9F047089D04468C46002B40F0838094
:1010F0008A42174647D9B2FA82F242B1C2F12000C1
:1011000024FA00F09140974040EA010C94404FEAE5
:101110001748230CBCFBF8F61FFA87FE08FB16C124
:1011200043EA014306FB0EF1994209D9FB1806F187
:10113000FF3080F01981994240F21681023E3B4413
:101140005B1AA4B2B3FBF8F008FB103344EA034483
:1011500000FB0EFEA64509D93C1900F1FF3380F0D3
:101160000581A64540F2028102383C4440EA06402F
:10117000A4EB0E0400261DB1D4400023C5E90043B2
:101180003146BDE8F08702B9FFDEB2FA82F2002AEA
:1011900050D1CB1B4FEA174E1FFA87F80126B3FB3D
:1011A000FEFC210C0EFB1C3341EA034108FB0CF34F
:1011B0008B4207D979180CF1FF3002D28B4200F232
:1011C000E9808446C91AA3B2B1FBFEF00EFB1011F0
:1011D00043EA014408FB00F8A04507D93C1900F197
:1011E000FF3302D2A04500F2D9801846A4EB0804D0
:1011F00040EA0C40BFE78B4209D9002D00F0B180D6
:101200000026C5E9000130463146BDE8F087B3FA53
:1012100083F6002E4AD18B4202D3824200F2B8807C
:10122000841A61EB030101208C46002DA8D0C5E98A
:10123000004CA5E7C2F1200320FA03F6974001FA1B
:1012400002F04FEA174ED9403043030CB1FBFEF6D3
:101250001FFA87F80EFB161143EA014306FB08F15B
:10126000994204FA02F409D9FB1806F1FF3C80F018
:101270008D80994240F28A80023E3B445B1A81B2E3
:10128000B3FBFEF00EFB103341EA034100FB08F311
:101290008B4207D9791800F1FF3C73D28B4271D988
:1012A00002383944CB1A40EA064678E7C6F1200CEA
:1012B00003FA06F422FA0CF31C4320FA0CF701FAA5
:1012C00006F34FEA144E21FA0CF11F433B0CB1FB1D
:1012D000FEF91FFA84F80EFB191143EA014109FBDC
:1012E00008FA8A4502FA06F200FA06F308D96118EC
:1012F00009F1FF3048D28A4546D9A9F102092144B3
:10130000A1EB0A01BFB2B1FBFEF00EFB101147EAE0
:10131000014700FB08F8B84507D9E71900F1FF318C
:101320002ED2B8452CD90238274440EA0940A7EB11
:101330000807A0FB02894F45C64649461AD317D075
:101340005DB1B3EB0E0267EB010707FA0CFCF2404C
:101350004CEA0202F740C5E9002700263146BDE805
:10136000F0872E4628460BE70646E9E61846FDE6D6
:101370004345E5D2B8EB020E69EB04010138DFE723
:101380000846D2E760468DE78146B9E7664675E7CD
:1013900030464AE7ACF1020C394413E702383C44CA
:1013A00024E700BF03685A004CBF43F0004323F01A
:1013B00000431844704700BF2DE9F84329B34F1E7E
:1013C000044615463E464FF0000808EB060101EBC7
:1013D000D171491004EBC1094846FFF7E3FF03460A
:1013E000C80008308F42204409D0AB4209D8FFF72B
:1013F000D9FF0138A8420AD201F10108E5E7AB4262
:1014000005D9884501D04E1EDFE74FF00009484658
:10141000BDE8F883012807D0022807D0044B002834
:101420000CBF1846002070470248704702487047BA
:10143000D91A0000DD1A0000E11A000030B5234B74
:1014400083B004468D1E3BB301A92846AFF300804C
:10145000E8B101992A46FFF7AFFF0146B8B1FFF79F
:10146000A1FF4B68A064012B2BD0002B01F10400DD
:1014700023DBFFF797FF0023C4E913030368002B66
:1014800010DBFFF78FFF2061002003B030BD002389
:101490000920236103B030BD0D490E48091AC91057
:1014A0000191D7E7C3F30360FFF7B4FF0028206181
:1014B00014BF0020092003B030BD0123C4E9130389
:1014C000DCE7002323610520DFE700BF0000000008
:1014D0003CE6000034E300000368DA0710B5044678
:1014E00006D49B0700F1480009D500F04BFC2368A7
:1014F000590709D51A070ED5DB0613D510BD00F024
:1015000039FC23685907F5D404F1D00000F042FCFF
:1015100023681A07F0D404F5A87000F043FC236890
:10152000DB06EBD404F5E870BDE8104000F07EBCAB
:101530000346006800B11844704700BF0920704797
:10154000704700BF70B504460E46316C2046FFF769
:1015500075FF054688B9336C6361324623692146BD
:10156000012098470828F0D0072806D12846316C7A
:10157000FFF7E6FF301D00F0F1FB09F071F800BF46
:101580002DE9F0470D1D064614460FCDADF5727DD1
:101590000DF10C0CACE80F000FCDACE80F000FCD37
:1015A000ACE80F0095E80F0002ADF768D6F8188098
:1015B0008CE80F0000232B6021E02B6C73614FF44B
:1015C000F07229467AA800F041FE33697AAA3146C2
:1015D00050469847889BCDE9005821466B64814668
:1015E000334632460120B8470446E8B94FF4F0725A
:1015F0007AA9284600F02AFEB9F1080F1BD1296C00
:101600003046FFF71BFF09345FFA84FA8146002851
:10161000D3D0AB6B4AF01001CDE9005832466B6471
:1016200001203346B84708B14FF0090948460DF587
:10163000727DBDE8F087B9F1070FF5D12046296C1E
:10164000FFF77EFF03A800F089FB00BF406C7047E6
:10165000F0B5CB6B0B640E1D0F4605460FCEF9B0EF
:1016600001AC0FC40FCE0FC40FCE0FC496E80F000D
:101670004FF0FF3684E80F00009606E02B696A46BB
:10168000294698470828044608D110992846FFF7AC
:10169000D5FE0028F2D0092079B0F0BD6846FFF7EA
:1016A0001BFF062CF7D139462846FFF74BFF00BF3A
:1016B00030B4DD6BC160826119461D64002230BC0C
:1016C0005EE700BF70B5C66843690B64AEB90369D5
:1016D0000A4604460D46014602209847072805D0D1
:1016E00008280FD129462046FFF72CFF3046296CE9
:1016F000FFF726FF281D00F031FB0122FFF740FF16
:1017000008F0AEFF08F0ACFFC2681AB1CA6B0A64F9
:10171000002235E79CE700BF704700BF83680146A1
:101720000BB1012018477047012912D009D873B9AD
:101730000F2A0CD800EB820218465368009A1360F7
:1017400070470339012994BF01200220704702200D
:1017500070470846704700BF10B584B0002303AC43
:101760000A4600941946FFF7DFFF039804B010BD46
:10177000012912D009D873B90F2A0CD800EB8200C6
:10178000009A12684260184670470339012994BFD5
:10179000012002207047022070470846704700BFB2
:1017A00010B584B0002303AC039200940A46194696
:1017B000FFF7DEFF04B010BDF0B5D36B1364151D49
:1017C0008C4606460FCDADF50F7D17AC0FC40FCD7F
:1017D0000FC40FCD0FC495E80F004FF0FF3784E81A
:1017E0000F006546169710E0FFF7DAFF294616A8A6
:1017F000B047034616AA6946082083B9049B984758
:10180000052804460CD0092809D026996846FFF718
:1018100015FE03466A460C2116A8002BE4D00924C5
:1018200016A8FFF759FE20460DF50F7DF0BD00BF4D
:101830002DE9F04FCC6C89B00D4654F8041B06948A
:10184000174600F003081E46002B79D00B0CDAB2C5
:1018500009048DF81D30022304EB820405918DF8F4
:101860001C302B6DB8F1020F08BFAC6B13F00103F5
:101870000CD0384605A900F073FB18B9082009B050
:10188000BDE8F08F092009B0BDE8F08FD4F800A0C2
:10189000BAF1000FEDD0019300F008030293022E7D
:1018A0004AD0B4F800A0B4F802900434AA6C29F02D
:1018B000010B0F2138469344FFF74EFF834539D87B
:1018C0002AF001025A44824294BF002001204FEACC
:1018D000490303F002030AF0010A43EA0A03012B59
:1018E00049D0022B32D0002BCCD1B8F1000F02D05E
:1018F000002840F0CD800434D4F800A0BAF1000FE5
:10190000CDD105A9384600F02BFB0028BAD1019BA8
:10191000002BB3D00F213846FFF71EFF0E210246E1
:101920003846FFF73DFF38466A4A0F21FFF738FF78
:101930000720A8E70020CAE7D4F804900834B5E7E8
:10194000090203230591ADF81C308AE7236823F0D0
:10195000004BB8F1000F45D128B1029A002A5CD0A3
:10196000BBF1000F74D0002B00DA04340BF1010B33
:1019700004EB8B04C0E7B8F1000F19D1B0B1D4E982
:101980000023991C4FEAD2723FF47CAF05F1580155
:101990000133049100F09080201DFFF7C9FD04ABD6
:1019A00001462846AFF3008000285BD10834A3E746
:1019B0000D213846D5F82090FFF7CEFE8145F5D1B0
:1019C000AB6A9C42F2D12046FFF7ECFC0F210246A5
:1019D0003846FFF7E5FE38462A460021FFF7E0FECD
:1019E000072050E70D213846D5F82090FFF7B4FEC8
:1019F000814501D02368B6E7AB6A9C42FAD1042244
:101A00000021C5E90B12A318C5F828B06B63236841
:101A10008B4259DB01230193A8E705F15803CDF868
:101A20000C8004F1040AB04691461E460DE004966F
:101A3000FFF77EFD04AB014600222846AFF300808D
:101A400009F101090AF1040AE8B9D9455046EED175
:101A500038460D21FFF780FE049B2862C5E9093452
:101A6000062010E781460D213846FFF775FEB9F1D3
:101A7000020F286225D12B46049A43F82C2F6B6263
:101A8000AC620620FFE646462368DDF80C806AE774
:101A90002046FFF787FC04340246AC632846144610
:101AA000AFF3008000283FF4EDAE384622460F2108
:101AB000FFF776FE0720E6E638460D21FFF74CFEDD
:101AC0002862049B6B62DBE70BF1010004EB8000F2
:101AD0007AE700BF000000000023A9E60123A7E683
:101AE0000223A5E62DE9F0430646C3B015461C4681
:101AF000042900F2B980DFE801F09A53B729030006
:101B0000002C40F0B180102A00F2AE800368D806A5
:101B100000F1F38020AF384600F092F9B06B00235B
:101B2000012404FA03F22A42014604D051F8042B9E
:101B300047F8232008460133042BF2D1B06338461E
:101B400000F074F9002043B0BDE8F083032C40F0AE
:101B50008B8094B204EB1243102B4FEA124500F233
:101B6000838003681F0700F1D08020AF384600F063
:101B70003BF907EBC501B56B54B10B46E81A01EB15
:101B8000C401E4001A5843F8042B8B42FAD12544CF
:101B90003846B56300F006F9002043B0BDE8F08395
:101BA000012C4FEA124895B25AD0052C5CD108EBB3
:101BB0000509B9F1200F57D8B8F10F0F77D9A94609
:101BC000002D40F08880B36B6DB320AF4FF000095B
:101BD00007EBC807043F03EBC50553F8041B47F8A0
:101BE000041FAB42F9D1B9F1000F0FD06F46414647
:101BF000102938BF102107EBC101843903EBC90557
:101C000053F8040B41F8040FAB42F9D1012C00F05A
:101C10008480B8F10F0FB56345D9B9F1000F02D038
:101C2000684600F0B7F8002043B0BDE8F083DCB9A7
:101C3000876B2346012094B206F1040C00FA03F2EC
:101C40002242394604D051F8042B4CF823200F4689
:101C50000133102BF2D115F40050E4D1B76304E046
:101C600008EB0503102B03D9022043B0BDE8F08335
:101C7000B8F10F0FF8D83368DA0706D5304623F0ED
:101C8000030340F8483B00F079F820AF384600F0F5
:101C900075F8B36B002D99D11D460435B5633846F0
:101CA00000F068F8BFE720A800F06CF8B5E7B9F1DC
:101CB000100F40D9A9F110093368D90708D523F0CE
:101CC0000103304643F0020340F8483B00F05EF861
:101CD000B9F1000F32D033685A0720D4B8F10F0F92
:101CE00025D96F463846C8F1100500F057F8002D89
:101CF000B36B7FF77CAF20AF6AE723F0100333604C
:101D000006F5E87000F09CF804E723F00803036090
:101D100000F5A87000F068F827E720AFBDE730466F
:101D200023F0040340F8D03B00F038F8D6E720A8B1
:101D300000F02CF8D5E74FF00009BDE7B8F10F0F20
:101D40003FF641AF20AF384600F020F8B36B002DCE
:101D50007FF43CAF384600F015F864E700F1340139
:101D600091E838009C46A6464CF8045D90E8FF0FC9
:101D7000E54600BD90EC210B704700BF80EC210BC5
:101D8000704700BF90EC200B704700BF80EC200B29
:101D9000704700BFD0EC200B704700BFC0EC200B99
:101DA000704700BFF0EC0201F0EC0211F0EC0221F0
:101DB000F0EC0231F0EC0241F0EC0251F0EC026187
:101DC000F0EC0271F0EC0281F0EC0291F0EC02A177
:101DD000F0EC02B1F0EC02C1F0EC02D1F0EC02E167
:101DE000F0EC02F1704700BFE0EC0201E0EC021100
:101DF000E0EC0221E0EC0231E0EC0241E0EC0251C7
:101E0000E0EC0261E0EC0271E0EC0281E0EC0291B6
:101E1000E0EC02A1E0EC02B1E0EC02C1E0EC02D1A6
:101E2000E0EC02E1E0EC02F1704700BFB0FC0181A0
:101E3000B0FC0191B0FC01A1B0FC01B1704700BF42
:101E4000A0FC0181A0FC0191A0FC01A1A0FC01B1BA
:101E5000704700BFEC4600B52DE900502DE9FF1F8B
:101E60004FF000032DE90C0001A9FFF7F1FBDDF8AD
:101E700040E012B0704700BFEC4600B52DE90050BD
:101E80002DE9FF1F4FF000032DE90C0001A9FFF71A
:101E900019FCDDF840E012B0704700BFEC4600B519
:101EA0002DE900502DE9FF1F4FF000032DE90C0034
:101EB00001A9FFF729FCDDF840E012B0704700BF30
:101EC000EC4600B52DE900502DE9FF1F4FF000034F
:101ED0002DE90C0001ABFFF7EBFBDDF840E012B0A1
:101EE000704700BFEC4600B52DE900502DE9FF1FFB
:101EF0004FF000032DE90C0001AAFFF75DFCDDF8AF
:101F000040E012B0704700BF027A7AB9437AA3B1B9
:101F10004268013B10B4437213680321141D01721F
:101F20001A024460026010BC180E70470368013A40
:101F300002721A020260180E7047B020704700BF8C
:101F400000B585B003AA0023009219460C22FFF7C2
:101F5000EBFB039805B05DF804FB00BFF0E700BFA2
:101F60002DE9F043054685B00E464FF00008304697
:101F7000FFF7CAFFB028044600F0B280070620D55C
:101F800000F0F003802B4DD0902B36D0A02B60D0EA
:101F9000B02B74D0C02B00F08B8000F0F803D02B56
:101FA0000BD100F00702013242F400220523012187
:101FB0002846FFF797FD0028D9D0092005B0BDE8D5
:101FC000F0830DF10C09002319468700CDF800902D
:101FD0000D222846FFF7A8FBFFB2039BCDF8009027
:101FE000043760064CBFDF1BFF18002319460D2283
:101FF00028460397FFF7BCFBB9E700F00D030D2B54
:10200000DBD003AF002300F00F02194600972846EB
:10201000FFF78AFB0023009719460D222846FFF799
:10202000A7FBA4E73046FFF76FFF24022043B0F57B
:10203000004FC2D004010023A2B219462846FFF780
:1020400051FD0028B9D114F4004F18BF4FF001081A
:102050008DE7C24302F007034FF47F621A41010784
:1020600002F47F624FF0000348BF42F480421946F9
:102070002846FFF737FD00283FF479AF9DE7B128E8
:1020800033D0B22800F08B80B32839D000F0FC03A5
:10209000B42B92D000F007020132012342F4002257
:1020A00019462846FFF71EFD00283FF460AF84E77D
:1020B000C62842D0C7284CD000F0F803C02B5BD014
:1020C000C82860D0C9287FF478AF3046FFF71CFFDE
:1020D000020300F00F0002F470220130024365E7B2
:1020E000B8F1000F18D0002068E73046FFF70CFF6A
:1020F000024600283FF461AF10F0F003D0D05CE757
:102100003046FFF701FF010300F00F0001F47021DA
:10211000421C01230A43C3E703AC43460E22414657
:1021200000942846FFF700FB0094284643460F2200
:102130004146FFF71DFB404640E73046FFF7E4FE0F
:10214000010300F00F0001F47021421C03230A4335
:10215000A6E73046FFF7D8FE024600283FF42DAF31
:1021600010F0F0037FF429AF04212846FFF7BAFCF2
:1021700000283FF4FCAE20E700F00F0201320323F9
:1021800042F420228CE73046FFF7BEFE00F0F0025A
:1021900000F00F031032013343EA023206E7002356
:1021A0000DF10C090D221946CDF800902846FFF7D5
:1021B000BBFA3046FFF7A8FE02064FF002070CD527
:1021C000039B00F07F00B840034430460393FFF7C1
:1021D0009BFE030607F10707F2D4039BCDF800909E
:1021E00000F07F0403F50172BC400023144419463B
:1021F0000D2228460394FFF7BBFAB8E610B5C26C6F
:1022000084B0536803248DF80C401B0202F10804CB
:102210000846D279019301A902948DF80D20FFF7A9
:102220009FFE04B010BD00BF08B5FFF797FE806C9D
:1022300008BD00BF08B5FFF791FEC06CC37902333B
:1022400000EB830008BD00BF704700BF844641EA31
:10225000000313F003036DD1403A41D351F8043B1E
:1022600040F8043B51F8043B40F8043B51F8043B70
:1022700040F8043B51F8043B40F8043B51F8043B60
:1022800040F8043B51F8043B40F8043B51F8043B50
:1022900040F8043B51F8043B40F8043B51F8043B40
:1022A00040F8043B51F8043B40F8043B51F8043B30
:1022B00040F8043B51F8043B40F8043B51F8043B20
:1022C00040F8043B51F8043B40F8043B51F8043B10
:1022D00040F8043B51F8043B40F8043B403ABDD27F
:1022E000303211D351F8043B40F8043B51F8043B21
:1022F00040F8043B51F8043B40F8043B51F8043BE0
:1023000040F8043B103AEDD20C3205D351F8043BAF
:1023100040F8043B043AF9D2043208D0D2071CBF7B
:1023200011F8013B00F8013B01D30B8803806046A4
:10233000704700BF082A13D38B078DD010F003031A
:102340008AD0C3F10403D21ADB071CBF11F8013B8A
:1023500000F8013B80D331F8023B20F8023B7BE7D9
:10236000043AD9D3013A11F8013B00F8013BF9D204
:102370000B7803704B7843708B788370604670479E
:1023800001F0FF01102A2BDB10F0070F08D010F826
:10239000013B013A8B422DD010F0070F42B3F6D12A
:1023A000F0B441EA012141EA014122F007047FF043
:1023B00000070023F0E80256083C85EA010586EA9A
:1023C000010685FA47F5A3FA87F586FA47F6A5FAD6
:1023D00087F68EB9EED1F0BC01F0FF0102F00702E2
:1023E00032B110F8013B013A83EA010313B1F8D18D
:1023F0000020704701387047002D06BF354603386E
:10240000073815F0010F07D1013015F4807F02BFA6
:10241000013015F4C03F0130F0BC0138704700BFF7
:1024200000000000000000000000000000000000AC
:10243000000000000000000000000000000000009C
:1024400090F800F06DE9024520F007016FF0000CF4
:1024500010F0070491F820F040F049804FF000049C
:102460006FF00700D1E9002391F840F000F1080077
:1024700082FA4CF2A4FA8CF283FA4CF3A2FA8CF3AF
:102480004BBBD1E9022382FA4CF200F10800A4FA16
:102490008CF283FA4CF3A2FA8CF3E3B9D1E904236A
:1024A00082FA4CF200F10800A4FA8CF283FA4CF3A1
:1024B000A2FA8CF37BB9D1E9062301F1200182FA5B
:1024C0004CF200F10800A4FA8CF283FA4CF3A2FA61
:1024D0008CF3002BC6D0002A04BF04301A4612BA6F
:1024E000B2FA82F2FDE8024500EBD2007047D1E972
:1024F000002304F00305C4F100004FEAC50514F001
:10250000040F91F840F00CFA05F562EA05021CBFD1
:1025100063EA050362464FF00004A9E780B590B076
:1025200000AF78600B46FB70FB78002B27D107F1DA
:10253000240300221A605A609A60DA601A615A61B4
:102540002D4A7B6852F833307B62012387F82830AC
:10255000012387F829304FF0FF333B6307F1240351
:10256000184606F093FF244A7B68DB0013440122DF
:102570001A717B68DB00204A1344FB6336E0FB786A
:10258000012B31D107F10C0300221A605A609A60C6
:10259000DA601A615A61184A7B6852F83330FB607E
:1025A00001233B754FF0FF33BB6107F10C03184665
:1025B00006F0DEFF104A7B68DB00134402221A712A
:1025C0007B68292B0AD97B682C2B07D80A4A7B68A1
:1025D00052F833300121184607F006F87B68DB001B
:1025E000054A1344FB6301E00023FB63FB6B1846C1
:1025F0004037BD4680BD00BF0000002080B586B0DA
:1026000000AF78607B683B613B69002B0BD03B6976
:102610001B79012B07D13B691B68184606F0F2FFB6
:102620000346FB7501E00023FB753B691B681B0A31
:10263000DBB2FB603B691B68DBB2BB60FB68022B53
:1026400002D1BB68062B05D0FB68002B09D1BB6803
:10265000042B06D1FB7D002B0CBF01230023DBB232
:10266000FB75FB7D18461837BD4680BD80B586B02A
:1026700000AF78600B46FB707B687B617B69002B49
:102680002FD07B691B79022B2BD17B691B681B0A1E
:10269000DBB23B617B691B68DBB2FB603B69012BF2
:1026A00005D1FB68162B08D0FB68152B05D03B69BC
:1026B000042B0FD1FB681A2B0CD17B691A68FB78AD
:1026C000012B14BF01230023DBB21946104606F08C
:1026D0008BFF06E07B691B68FA781146184606F006
:1026E00083FF00BF1837BD4680BD80B485B000AF02
:1026F00078607B68FB60FB68002B0ED0FB681B7961
:10270000022B03D1FB6800221A7106E0FB681B79DB
:10271000012B02D1FB6800221A7100BF1437BD469D
:102720005DF8047B704780B582B000AF786006F03A
:10273000E3FB034618460837BD4680BD80B483B02E
:1027400000AF78607B68023303F1424303F58013E6
:102750005B011C3301221A7000BF0C37BD465DF8C7
:10276000047B704780B483B000AF78607B6802332D
:1027700003F1424303F580135B010C3300221A700E
:1027800000BF0C37BD465DF8047B704780B483B052
:1027900000AF78607B68023303F1424303F5801396
:1027A0005B010C3301221A7000BF0C37BD465DF887
:1027B000047B704780B483B000AF78600B46FB7039
:1027C0007B68023303F1424303F580135B0110334E
:1027D0001A46FB78137000BF0C37BD465DF8047BCA
:1027E000704780B483B000AF78607B681B79DBB240
:1027F00018460C37BD465DF8047B704780B483B043
:1028000000AF78600B46FB707B68FA781A7100BFE6
:102810000C37BD465DF8047B704780B483B000AFD1
:1028200078600B46FB707B68DB78DBB21A46FB787E
:1028300042FA03F303F00103002B14BF012300232A
:10284000DBB218460C37BD465DF8047B704780B498
:1028500083B000AF78607B68023303F1424303F535
:1028600080135B0114331B78DBB2002B14BF0123F0
:102870000023DBB218460C37BD465DF8047B704779
:1028800080B483B000AF78600B46FB707B68023386
:1028900003F1424303F580135B011833FA781A7091
:1028A00000BF0C37BD465DF8047B704780B483B031
:1028B00000AF78607B680222DA7000BF0C37BD463B
:1028C0005DF8047B7047000080B584B000AFF8600D
:1028D000B9601346FB71BB681F2B05D90B4B0C4A23
:1028E000D9210C4807F0C4FEBB689B00FA6813446A
:1028F00003F1424303F580135B0114331A46FB795D
:10290000136000BF1037BD4680BD00BF60D200001D
:1029100058D300006CD2000080B584B000AFF860DE
:10292000B9601346FB71BB681F2B05D90D4B0E4ACE
:10293000FF210E4807F09CFEFB68BA6853F822306E
:1029400023F0807323F4E063FA79120202F4E06268
:1029500043EA0201FB68BA6843F8221000BF10374F
:10296000BD4680BD60D2000044D300006CD20000A0
:1029700080B584B000AF78607B681B680F4A52F85E
:102980002330FB607B681B68184600F0EFF97B681A
:102990001B68184606F002FBF86806F051FEF8685E
:1029A000FFF7CCFE0121F868FFF76AFF0449786859
:1029B00000F0FCF800BF1037BD4680BD38D30000E2
:1029C000A086010080B584B000AF78607B681B688A
:1029D000054A52F82330FB60F86806F077FE0023C2
:1029E00018461037BD4680BD38D3000080B584B08E
:1029F00000AF78600023BB607B681B680E4A52F80A
:102A00002330FB60F868FFF722FF0346002B02D05B
:102A1000F86806F06BFE0023BB6004E000BF00BF57
:102A2000BB680133BB60BB68C72BF7D900231846CE
:102A30001037BD4680BD00BF38D3000080B586B0DA
:102A400000AF78600B46FB70104B3B617B681B68E6
:102A50000F4A52F82330FB6000237B610CE0FB78C7
:102A60001946F868FFF7D9FE0346002B01D0002372
:102A700007E07B6901337B617A693B699A42EED357
:102A8000012318461837BD4680BD00BFA08601004F
:102A900038D3000080B584B000AF78607B681B68D5
:102AA000104A52F82330FB6001217868FFF7C6FF17
:102AB0000346002B01D0022310E0F868FFF7F6FE72
:102AC00007217868FFF7BAFF0346002B01D00223E5
:102AD00004E00021F868FFF7A0FE0346184610370F
:102AE000BD4680BD38D3000080B584B000AF7860AB
:102AF0007B681B680A4A52F82330FB600121786822
:102B0000FFF79CFF0346002B01D0012303E0F86888
:102B1000FFF7CCFE002318461037BD4680BD00BF2E
:102B200038D3000080B584B000AF786039607B682E
:102B30001B68094A52F82330FB603B68DBB2194638
:102B4000F868FFF75BFE7868FFF7A4FF03461846B6
:102B50001037BD4680BD00BF38D3000080B586B0B9
:102B600000AFF860B9607A60FB681B680E4A52F8E3
:102B700023307B617B68002B03D07869FFF706FE6A
:102B800002E07869FFF7EEFD7869FFF72AFE034659
:102B90001A46BB681A70F868FFF7A6FF0346184686
:102BA0001837BD4680BD00BF38D3000080B584B063
:102BB00000AF786039607B681B680E4A52F823309A
:102BC000FB607B681B681846FFF7ADFD0346BB60E2
:102BD0003B68094A82FB03129211DB17D31A1A468B
:102BE0000023B968F86806F039FD00BF1037BD460C
:102BF00080BD00BF38D30000D34D621090B589B0BE
:102C000000AFF860B9607A603B60F868FFF7DAFE01
:102C10000346002B05D0F868FFF7E8FE6FF00103CC
:102C200055E0BB6843F001031946F868FFF77AFFE7
:102C30000346002B05D0F868FFF7D8FE4FF0FF33AE
:102C400045E0FB681B68244A52F82330BB61002131
:102C5000B869FFF7AFFD0023FB6124E0FB69002B9F
:102C600002D107F1120303E0FB69013B7A681344C8
:102C70007B613B68013BFA699A420CBF0123002348
:102C8000DBB2FB74FB7C1A467969F868FFF766FFD4
:102C90000346002B04D0F868FFF7A8FEFB6916E096
:102CA000FB690133FB61FA693B689A42D6DB3B6BF7
:102CB000002B02D0F868FFF799FEFB69013B7A68A8
:102CC000D418B869FFF78DFD034623703B6818469A
:102CD0002437BD4690BD00BF38D3000080B586B014
:102CE00000AFF860B9607A603B60F868FFF76AFE91
:102CF0000346002B05D0F868FFF778FE6FF001035C
:102D000030E0BB6803F0FE031946F868FFF70AFFDE
:102D10000346002B05D0F868FFF768FE4FF0FF333D
:102D200020E000237B6112E07B697A6813441B7802
:102D30001946F868FFF7F6FE0346002B04D0F86842
:102D4000FFF754FE7B690DE07B6901337B617A6993
:102D50003B689A42E8DB3B6A002B02D0F868FFF739
:102D600045FE3B6818461837BD4680BD80B582B029
:102D700000AF78607B68002B03D07B68012B15D0F7
:102D800029E0052218211648FFF7C6FD0122182167
:102D90001348FFF799FD052219211148FFF7BCFDE3
:102DA000012219210E48FFF78FFD14E002220A21AB
:102DB0000C48FFF7B1FD01220A210A48FFF784FD04
:102DC00002220B210748FFF7A7FD01220B2105482E
:102DD000FFF77AFD00BF00BF0837BD4680BD00BFCA
:102DE00000D0044000B0044080B584B000AF7860EB
:102DF0000B46FB707B68012B11D80C497B687A6805
:102E000041F823207B689B00084A13441846FFF7CB
:102E1000AFFD7B689B00054A1344FB6001E0002383
:102E2000FB60FB6818461037BD4680BDD80E0020F9
:102E300080B584B000AF786039607B68002B07D024
:102E40003B6819467868FFF7B1FE0023FB7301E089
:102E50000823FB73FB7B18461037BD4680BD80B549
:102E600088B002AFF8607A603B600B467B8100233C
:102E70007B6197F82030002B0CBF01230023DBB2CD
:102E80003B61FB68002B19D07B8959003A683B698C
:102E9000009313467A68F868FFF7B0FE03467B613B
:102EA0007B6913F1020F01D1012308E07B69B3F1C3
:102EB000FF3F01D1042302E0002300E0082318466D
:102EC0001837BD4680BD80B588B002AFF8607A6023
:102ED0003B600B467B8100237B6197F82030002B01
:102EE0000CBF01230023DBB23B61FB68002B19D030
:102EF0007B8959003A683B69009313467A68F86801
:102F0000FFF7ECFE03467B617B6913F1020F01D1F1
:102F1000012308E07B69B3F1FF3F01D1042302E004
:102F2000002300E0082318461837BD4680BD80B452
:102F300083B000AF786000BF0C37BD465DF8047BFE
:102F40007047000080B584B000AFF860B9601346E8
:102F5000FB71BB681F2B05D90D4B0E4AFF210E4894
:102F600007F086FBFB68BA6853F8223023F08073C1
:102F700023F4E063FA79120202F4E06243EA020108
:102F8000FB68BA6843F8221000BF1037BD4680BD09
:102F9000A4D2000074D30000B0D2000080B483B08B
:102FA00000AF78600B46FB707B681B6823F018024B
:102FB000FB78DB0003F018031A437B681A6000BF3C
:102FC0000C37BD465DF8047B7047000080B58EB0BD
:102FD00000AF786187ED020B87ED001B524A7B69D9
:102FE0005B01134411331B78002B40F087800023D2
:102FF00087F82830002387F82930002387F82A3003
:103000008023FB62484A7B695B0113441868464A87
:103010007B695B01134404331968434A7B695B0194
:10302000134410331B781A46FFF78CFF3E4A7B6926
:103030005B01134408331B6807F128021146184648
:1030400006F04CF8384A7B695B01134408331B686F
:10305000DBB200220121184606F0C6F8324A7B692D
:103060005B011344113304221A702F4A7B695B0100
:10307000134403F11801D7E90223C1E90023022315
:103080003B7600237B76284A7B695B011344183327
:10309000D3E9002310461946FDF79AFF0346FB616A
:1030A000D7E90001FDF794FF03463B620023BB8490
:1030B0001D4A7B695B01134408331B681B4A52F8A5
:1030C00023303B630021386BFFF768FF164A7B69AA
:1030D0005B01134408331868134A7B695B0113448E
:1030E0000C331B68DAB207F11803194606F0DAF858
:1030F0007B695B010C4A13447B630FE00A4A7B69DE
:103100005B01134411331B78042B05D17B695B01F0
:10311000054A13447B6301E000237B637B6B184605
:103120003837BD4680BD00BF7801002064D900005B
:1031300080B483B000AF786000BF0C37BD465DF847
:10314000047B704780B58AB000AFF86087ED000B54
:10315000FB687B627B6A002B2CD07B6A5B7C042B38
:1031600028D102233B7400237B747B6AD3E90623B6
:1031700010461946FDF72CFF03467B61D7E9000195
:10318000FDF726FF0346BB610023BB837B6A9B6878
:103190000A4A52F823303B620021386AFFF7FEFEEC
:1031A0007B6A98687B6ADB68DAB207F1100319461C
:1031B00006F078F800BF2837BD4680BD64D900000E
:1031C00080B485B000AF78607B68FB60FB68002B43
:1031D00006D0FB685B7C042B02D1FB6800225A748A
:1031E00000BF1437BD465DF8047B704780B483B0E0
:1031F00000AF786000BF0C37BD465DF8047B7047B8
:1032000080B586B000AF7861184B1B681B68002B37
:103210000CBF01230023DBB21A46154B1A7011E0D4
:103220003B461449184603F0C8FF01F08DF90F4BD7
:103230001B681B68002B14BF01230023DBB21A4656
:103240000D4B1A700A4B1B78DBB2002BE8D1084BF0
:1032500000221A70786900F011F8002003F006FFD0
:10326000002318461837BD4680BD00BF88D3000034
:1032700038040020EC0E0020E00E002080B582B063
:1032800000AF7860074B01221A60074B00221A70CA
:1032900002F0A6FD054803F07DFF0023184608371D
:1032A000BD4680BD080F002038040020E40E002039
:1032B00080B586B000AF7861396103F095FA03F00C
:1032C0005DFC0A4B1B6800221A6002F029FB0020FB
:1032D0009FED070A03F01CFE3B460649184603F023
:1032E0006CFF002318461837BD4680BD88D3000008
:1032F0006F12833AE40E002090B583B000AF78607F
:103300009F4BD3E922014FF000029E4BFDF7F0FDE9
:103310000346002B0CD19C4B03F58A531F3300222C
:103320001A70994B03F58A531C3306221A701CE15C
:10333000954B03F58A531F331B78013B032B00F297
:10334000148101A252F823F059330000AB3300007E
:1033500049340000913400008C4B012283F8C82FBF
:103360008A4B002283F8C32F884B012283F8C02F99
:10337000864B012283F8C52F844B002283F8C12F8E
:10338000824B002283F8C22F804B012283F8C62F84
:103390007D4B03F58A531F3303221A707A4B03F5D2
:1033A0008A53183300221A60DFE0784B002283F83A
:1033B000C02F764B012283F8C52F744B012283F86E
:1033C000C32F724B002283F8C62F704B002283F864
:1033D000C12F6E4B002283F8C22F6B4B03F58A532B
:1033E00018331C68664B93ED1C7BB0EE470AF0EE79
:1033F000670A06F0ADFF53EC102B10461946FDF797
:10340000E7FD03469C42C0F0AB805F4B03F58A5357
:103410001F3301221A705D4B012283F8C82F5B4BCA
:10342000002283F8C32F564BD3E91A23574901F6DC
:103430009871C1E90023554B012283F8C02F534BEB
:10344000012283F8C62F8BE04F4B03F58A531833C4
:103450001C684B4B93ED207BB0EE470AF0EE670AF9
:1034600006F076FF53EC102B10461946FDF7B0FD21
:1034700003469C4276D3444B03F58A531F33042200
:103480001A70414B03F58A53183300221A6069E021
:103490003D4B03F58A5318331C68394BD3E90A2393
:1034A00035A1D1E90001FDF7E5FB02460B461046C8
:1034B0001946334BD3E91C23FDF7FAF802460B46B5
:1034C000104619462E4BD3E92023FDF7F1F80246AA
:1034D0000B4643EC172BB0EE470AF0EE670A06F0F6
:1034E00037FF53EC102B10461946FDF771FD0346CC
:1034F0009C4224D3244B03F58A531F3302221A70B3
:10350000214B03F58A53183300221A601F4B002207
:1035100083F8C02F1D4B012283F8C52F1B4B0122BE
:1035200083F8C32F194B002283F8C62F174B0022B4
:1035300083F8C12F154B002283F8C22F14E07B685B
:103540001B78002B10D0104B03F58A531F33032236
:103550001A700D4B03F58A53183300221A6003E0EA
:1035600000BF02E000BF00E000BF00BF0C37BD4657
:1035700090BD00BFAFF3008000000000004CED40A4
:103580004004002000000840E01E0020100F002032
:1035900090B585B000AF7860B94BD3E922014FF008
:1035A0000002B84BFDF7A4FC0346002B0CD1B64B30
:1035B00003F58B53033300221A70B34B03F58A5380
:1035C0001C3306221A7051E1AF4B03F58B530333C2
:1035D0001B78032B00F0F980032B00F34781012BAC
:1035E00003D0022B00F0998040E1A84B012283F820
:1035F000C82FA64B002283F8C32FA44B012283F8C7
:10360000C02FA24B012283F8C52FA04B002283F8C4
:10361000C12F9E4B002283F8C22F9C4B012283F8BE
:10362000C62F7B681B78002B10D0974B03F58B536C
:10363000033303221A70944B03F58A531833002284
:103640001A60924B002283F8C82F0AE18E4B03F5D3
:103650008A531033D3E9002387A1D1E90001FDF794
:1036600009FB02460B4610461946854BD3E91C233D
:10367000FDF71EF802460B46C7E90223824B03F50D
:103680008A5318331C6897ED020B06F061FE53EC69
:10369000102B10461946FDF79BFC03469C421FD297
:1036A000794B03F58A5318331C68754BD3E92023F3
:1036B000D7E90201FCF7FCFF02460B4643EC172B4F
:1036C000B0EE470AF0EE670A06F042FE53EC102B0C
:1036D00010461946FDF77CFC03469C42C0F0C180B1
:1036E000694B03F58B53033302221A70664B03F5C3
:1036F0008A53183300221A60644B002283F8C82FC3
:10370000624B002283F8C02F604B012283F8C32F45
:103710005E4B002283F8C62FA3E05C4B002283F8A7
:10372000C82F5A4B002283F8C02F584B012283F830
:10373000C52F564B012283F8C32F544B002283F828
:10374000C62F524B002283F8C12F504B002283F822
:10375000C22F4D4B03F58A5318331C68484B93ED29
:103760001C7BB0EE470AF0EE670A06F0F1FD53EC61
:10377000102B10461946FDF72BFC03469C4272D3D2
:10378000414B03F58B53033301221A703E4B03F573
:103790008A53183300221A603C4B012283F8C82F49
:1037A0003A4B002283F8C32F354BD3E91A2337490C
:1037B00001F69871C1E90023344B012283F8C02F30
:1037C000324B012283F8C62F4DE0304B002283F8A4
:1037D000C82F2D4B03F58A5318331C68284B93EDE3
:1037E000207BB0EE470AF0EE670A06F0B1FD53EC1D
:1037F000102B10461946FDF7EBFB03469C4234D3D1
:10380000214B03F58B53033301221A701E4B03F532
:103810008A53183300221A601C4B012283F8C82FE8
:103820001A4B002283F8C32F154BD3E91A231749EB
:1038300001F69871C1E90023144B012283F8C02FCF
:10384000124B012283F8C52F104B002283F8C12FA1
:103850000E4B002283F8C22F0C4B012283F8C62F97
:1038600003E000BF02E000BF00E000BF00BF14376C
:10387000BD4690BDAFF3008000000000004CED405D
:103880004004002000001C40E01E0020100F00201B
:1038900080B500AF9B4BD3E922014FF000029A4B59
:1038A000FDF726FB0346002B2AD0984B03F58A53DD
:1038B0001C3303221A70954B03F58A531D330122E2
:1038C0001A70924B03F58A53183300221A60904BFA
:1038D000012283F8C52F8E4B002283F8C32F894B1A
:1038E000D3E91A238A4901F69871C1E90023884B6C
:1038F000012283F8C02F864B012283F8C62FE1E115
:10390000804BD3E922014FF00002824BFDF7F0FA21
:103910000346002B30D07D4B03F58A531C33012224
:103920001A707A4B03F58A531F3301221A70784BB1
:10393000012283F8C82F764B002283F8C32F714BE6
:10394000D3E91A23724901F69871C1E90023704B3B
:10395000012283F8C02F6E4B012283F8C52F6C4BD8
:10396000002283F8C12F6A4B002283F8C22F684BD4
:10397000012283F8C62FA5E1624BD3E922014FF063
:1039800000024FF08043FDF7B3FA0346002B3AD014
:103990005E4B03F58A531C3307221A705B4B03F509
:1039A0008A531E3301221A70584B03F58A53183379
:1039B00000221A60564B002283F8C32F544B00227A
:1039C00083F8C42F4F4BD3E91A23514901F698715C
:1039D000C1E900234E4B012283F8C02F4C4B01223A
:1039E00083F8C52F4A4B002283F8C12F484B002291
:1039F00083F8C22F464B002283F8C62F444B012286
:103A000083F8C72F5EE13F4BD3E922014FF000025C
:103A1000414BFDF76DFA0346002B3DD03B4B03F5C0
:103A20008A531C3309221A70384B03F58B53012239
:103A30001A70364B03F58A53183300221A60344B40
:103A4000012283F8C82F324B002283F8C42F2D4B5C
:103A5000D3E91A232E4901F69871C1E900232C4BB2
:103A6000012283F8C02F274BD3E92423284901F5ED
:103A70007A61C1E90023264B012283F8C52F244B2C
:103A8000002283F8C12F224B002283F8C22F204B43
:103A9000012283F8C72F15E11A4BD3E922014FF019
:103AA00000021E4BFDF724FA0346002B38D0174BBB
:103AB00003F58A531C3304221A70144B03F58B53FD
:103AC000013301221A70114B03F58A531833002277
:103AD0001A600F4B012283F8C52F0D4B002283F88B
:103AE000C32F084BD3E91A23094901F69871C1E99C
:103AF0000023074B012283F8C02F054B012283F8D6
:103B0000C62FDFE0400400200000F03FE01E002050
:103B1000100F00200000084000001040000014407A
:103B2000694BD3E922014FF00002684BFDF7E0F941
:103B30000346002B3AD0664B03F58A531C33082208
:103B40001A70634B03F58B53023301221A70604BDA
:103B500003F58A53183300221A605E4B002283F863
:103B6000C32F5C4B002283F8C42F574BD3E91A2391
:103B7000584901F69871C1E90023564B012283F898
:103B8000C02F544B012283F8C52F524B002283F8DB
:103B9000C12F504B002283F8C22F4E4B002283F8D6
:103BA000C62F4C4B012283F8C72F8BE0464BD3E93D
:103BB00022014FF00002484BFDF79AF90346002B13
:103BC0003ED0434B03F58A531C330A221A70404BF4
:103BD00003F58B53043301221A703D4B03F58A53CE
:103BE000183300221A603B4B012283F8C82F394B4F
:103BF000002283F8C42F344BD3E91A23354901F648
:103C00009871C1E90023334B012283F8C02F2E4B5A
:103C1000D3E924232F4901F57A61C1E900232D4B13
:103C2000012283F8C52F2B4B002283F8C12F294B8B
:103C3000002283F8C22F274B012283F8C72F41E0CF
:103C4000214BD3E922014FF00002244BFDF750F93C
:103C50000346002B00D135E01D4B03F58A531C337E
:103C600002221A701A4B03F58B53033301221A7088
:103C7000174B03F58A53183300221A60154B0122A3
:103C800083F8C82F134B002283F8C32F0E4BD3E9C0
:103C90001A23104901F69871C1E900230D4B012246
:103CA00083F8C02F0B4B012283F8C52F094B00224C
:103CB00083F8C12F074B002283F8C22F054B012246
:103CC00083F8C62F00BF80BD4004002000001840CC
:103CD000E01E0020100F00200000204000001C40CB
:103CE00090B585B000AF78609D4BD3E922014FF0CD
:103CF00000029C4BFDF7FCF80346002B0BD19A4BBE
:103D000003F58B5300221A70974B03F58A531C332B
:103D100006221A7084E1944B03F58B531B78032B16
:103D200000F02681032B00F37B81012B03D0022BB3
:103D300000F0B48074E18D4B012283F8C82F8B4BC7
:103D4000002283F8C42F894B012283F8C02F874BB0
:103D5000012283F8C52F854B002283F8C12F834BA6
:103D6000002283F8C22F814B012283F8C72F7B6882
:103D70001B78002B2DD07C4B03F58A5318331C681D
:103D8000774BD3E90A2374A1D1E90001FCF772FF54
:103D900002460B4610461946714BD3E91E23FCF729
:103DA00087FC02460B4643EC172BB0EE470AF0EEB9
:103DB000670A06F0CDFA53EC102B10461946FDF7B2
:103DC00007F903469C422CBF01230023DBB2FB739F
:103DD00001E00023FB73FB7B002B0FD0624B03F54C
:103DE0008B5303221A70604B03F58A531833002259
:103DF0001A605E4B002283F8C82F0CE17B681B78A9
:103E0000002B2DD1584B03F58A5318331C68544BA3
:103E1000D3E90A2350A1D1E90001FCF72BFF0246A8
:103E20000B46104619464E4BD3E91C23FCF740FCC9
:103E300002460B4643EC172BB0EE470AF0EE670A3A
:103E400006F086FA53EC102B10461946FDF7C0F821
:103E500003469C422CBF01230023DBB2FB7301E02D
:103E60000023FB73FB7B002B00F0D5803E4B03F55A
:103E70008B5302221A703C4B03F58A5318330022ED
:103E80001A603A4B002283F8C02F384B002283F887
:103E9000C72F364B012283F8C42FBCE0334B0022DE
:103EA00083F8C02F314B012283F8C52F2F4B0022FE
:103EB00083F8C12F2D4B002283F8C22F2B4B0022F9
:103EC00083F8C72F294B012283F8C42F264B03F513
:103ED0008A5318331C68224B93ED1C7BB0EE470AC3
:103EE000F0EE670A06F034FA53EC102B1046194630
:103EF000FDF76EF803469C42C0F08F801A4B03F525
:103F00008B5301221A70184B03F58A531833002281
:103F10001A60164B012283F8C82F144B002283F835
:103F2000C42F0F4BD3E91A23104901F69871C1E948
:103F300000230E4B012283F8C02F094BD3E9242321
:103F40000A4901F57A61C1E90023084B012283F88F
:103F5000C72F62E0AFF3008000000000004CED408E
:103F60004004002000001040E01E0020100F002040
:103F70002D4B002283F8C82F2C4B03F58A5318339E
:103F80001C682B4B93ED1E7BB0EE470AF0EE670AE0
:103F900006F0DEF953EC102B10461946FDF718F821
:103FA00003469C423BD3214B03F58B5301221A70ED
:103FB0001E4B03F58A53183300221A601A4B012254
:103FC00083F8C82F184B002283F8C42F184BD3E96D
:103FD0001A23154901F69871C1E90023124B0122F9
:103FE00083F8C02F124BD3E924230F4901F57A61DE
:103FF000C1E900230C4B012283F8C52F0A4B002294
:1040000083F8C12F084B002283F8C22F064B0122F0
:1040100083F8C72F03E000BF02E000BF00E000BF4D
:1040200000BF1437BD4690BD100F0020E01E0020D9
:10403000400400200000000090B585B000AF78601B
:10404000A34BD3E922014FF00002A24BFCF750FF33
:104050000346002B0CD1A04B03F58B5304330022F5
:104060001A709D4B03F58A531C3306221A7090E197
:10407000994B03F58B5304331B78032B00F03081ED
:10408000032B00F38681012B03D0022B00F0BC80B0
:104090007FE1924B012283F8C82F904B002283F8D6
:1040A000C42F8E4B012283F8C02F8C4B012283F842
:1040B000C52F8A4B002283F8C12F884B002283F83A
:1040C000C22F864B012283F8C72F7B681B78002BF9
:1040D00030D0814B03F58A5318331C687E4B03F5AF
:1040E0008A531033D3E9002377A1D1E90001FCF70B
:1040F000C1FD02460B4610461946754BD3E91E23F7
:10410000FCF7D6FA02460B4643EC172BB0EE470AF3
:10411000F0EE670A06F01CF953EC102B1046194616
:10412000FCF756FF03469C422CBF01230023DBB261
:10413000FB7301E00023FB73FB7B002B10D0664B6D
:1041400003F58B53043303221A70634B03F58A5330
:10415000183300221A60614B002283F8C82F13E144
:104160007B681B78002B30D15B4B03F58A531833E7
:104170001C68594B03F58A531033D3E9002352A12D
:10418000D1E90001FCF776FD02460B4610461946C0
:104190004F4BD3E91C23FCF78BFA02460B4643EC4A
:1041A000172BB0EE470AF0EE670A06F0D1F853EC91
:1041B000102B10461946FCF70BFF03469C422CBF00
:1041C00001230023DBB2FB7301E00023FB73FB7BC5
:1041D000002B00F0D980404B03F58B5304330222AF
:1041E0001A703D4B03F58A53183300221A603B4B7B
:1041F000002283F8C02F394B002283F8C72F374B9A
:10420000012283F8C42FBFE0344B002283F8C02F73
:10421000324B012283F8C52F304B002283F8C12F87
:104220002E4B002283F8C22F2C4B002283F8C72F7D
:104230002A4B012283F8C42F274B03F58A531833E6
:104240001C68234B93ED1C7BB0EE470AF0EE670A27
:1042500006F07EF853EC102B10461946FCF7B8FE1A
:1042600003469C42C0F092801B4B03F58B530433F2
:1042700001221A70184B03F58A53183300221A6072
:10428000164B012283F8C82F144B002283F8C42F49
:104290000F4BD3E91A23114901F69871C1E90023A4
:1042A0000E4B012283F8C02F094BD3E924230B497D
:1042B00001F57A61C1E90023084B012283F8C72F79
:1042C00064E000BFAFF3008000000000004CED4050
:1042D0004004002000002040E01E0020100F0020BD
:1042E0002E4B002283F8C82F2D4B03F58A53183329
:1042F0001C682C4B93ED1E7BB0EE470AF0EE670A6C
:1043000006F026F853EC102B10461946FCF760FE19
:1043100003469C423CD3224B03F58B5304330122CA
:104320001A701F4B03F58A53183300221A601B4B77
:10433000012283F8C82F194B002283F8C42F194B90
:10434000D3E91A23154901F69871C1E90023134BEB
:10435000012283F8C02F134BD3E924230F4901F521
:104360007A61C1E900230D4B012283F8C52F0B4B65
:10437000002283F8C12F094B002283F8C22F074B7C
:10438000012283F8C72F03E000BF02E000BF00E076
:1043900000BF00BF1437BD4690BD00BF100F002006
:1043A000E01E00204004002080B588B002AF786095
:1043B0007B6801225A600023FB7500233B61FB7D73
:1043C00019463869FEF710FD02467B689A627B68E1
:1043D000484A5A627B689A6A7B685B6A194610464B
:1043E000FEF726FD2B233B7340237B737B68986A83
:1043F00007F10C02002301930023009302231D21E7
:10440000FEF761FD4FF4FA7004F0ACFB2A23BB7297
:104410007B68986A07F10A02002301930123009345
:1044200001231D21FEF74FFD0346BB72BB7A002B13
:1044300014D17B68986A07F10A02012301930023D3
:10444000009301231D21FEF70AFD07F10A0107F180
:104450000B0301221846FDF7F9FE01E00023FB7271
:104460002A233B73FB7A23F00103DBB27B737B6867
:10447000986A07F10C0200230193002300930223A2
:104480001D21FEF720FD0E233B7301237B737B6808
:10449000986A07F10C020023019300230093022382
:1044A0001D21FEF710FD5B233B7300237B737B68AC
:1044B000986A07F10C020023019300230093022362
:1044C0001D21FEF700FD2A233B7321237B737B68AC
:1044D000986A07F10C020023019300230093022342
:1044E0001D21FEF7F0FC7B6801221A7200BF18370D
:1044F000BD4680BDA086010080B483B000AF786067
:104500007B6800221A727B6801225A607B68012254
:104510001A637B6801225A637B6800229A637B6876
:1045200000229A637B6803F138027B68DA627B6859
:1045300001221A727B6800225A7200BF0C37BD46F6
:104540005DF8047B70470000B0B592B002AFB24B8B
:1045500003F58053D3E90001B04BD3E90423FCF702
:10456000C7FC0346002B07D1AC4BD3E90423AA496F
:1045700001F58051C1E900230123FB71A64B03F52E
:10458000805318331868FA1D002301930123009308
:1045900001231D21FEF797FC0346FB71FB79002BDD
:1045A00057D19D4B03F580531833186807F110025B
:1045B000012301930023009306231D21FEF74FFCE6
:1045C00007F1100107F1180306221846FDF73EFE19
:1045D00007F1180107F1080302221846FDF736FE1D
:1045E0007B7A3B733B7A7B7307F10C0107F118036D
:1045F00002221846FDF72AFE07F11803991C07F15D
:10460000080302221846FDF721FE7B7A3B733B7AB2
:104610007B7307F10C0107F11803023302221846DD
:10462000FDF714FE07F11803191D07F10803022214
:104630001846FDF70BFE7B7A3B733B7A7B7307F1E1
:104640000C0107F11803043302221846FDF7FEFDA2
:1046500005E000233B8300237B830023BB83B7F962
:1046600018309B101BB21846FCF770F902460B4637
:10467000FCF720F802460B461046194664A3D3E91E
:104680000023FCF7CDF902460B46104619464FF0C1
:104690000002634BFCF7EEFA02460B461046194641
:1046A0005E4BD3E90623FCF7BBF902460B46C7E98C
:1046B0000E23B7F91A309B101BB21846FCF746F9C7
:1046C00002460B46FBF7F6FF02460B46104619461C
:1046D0004FA3D3E90023FCF7A3F902460B4610468B
:1046E00019464FF000024E4BFCF7C4FA02460B4647
:1046F00010461946494BD3E90623FCF791F90246C7
:104700000B46C7E90C23B7F91C309B101BB21846A7
:10471000FCF71CF902460B46FBF7CCFF02460B46A2
:10472000104619463AA3D3E90023FCF779F902466B
:104730000B46104619464FF00002394BFCF79AFA27
:1047400002460B4610461946344BD3E90623FCF7C4
:1047500067F902460B46C7E90A23D7E90E23D7E9D2
:104760000E01FCF75DF902460B4614461D46D7E9DB
:104770000C23D7E90C01FCF753F902460B462046FF
:104780002946FBF797FF02460B4614461D46D7E91C
:104790000A23D7E90A01FCF743F902460B462046F3
:1047A0002946FBF787FF02460B4643EC172BB0EE7A
:1047B000470AF0EE670A05F055FE51EC100B174B57
:1047C000D3E90823FBF774FF02460B46C7E90E2323
:1047D000114B5B7A002B02D00F4B00225A720E4B0A
:1047E000DB6A3B623B6A1B68012B6ED03B6A00228E
:1047F0001A713B6A01221A60396A4FF000024FF0C9
:104800000003C1E9022300237B6219E0AFF30080BB
:1048100008AC1C5A643BCF3FE01E0020400400203F
:1048200000408F403A6A7B6A0233DB00D1184FF0B8
:1048300000024FF00003C1E900237B6A01337B6271
:104840007B6AB3F5F97FEDDD3B6A03F6A8714FF0A3
:104850000002914BC1E900233B6A03F57B614FF0F5
:1048600000024FF00003C1E900233B6A01221A71E4
:10487000396A4FF000024FF00003C1E90223002320
:104880007B620DE03A6A7B6A0233DB00D1184FF09D
:1048900000024FF00003C1E900237B6A01337B6211
:1048A0007B6AB3F5F97FEDDD3B6A03F6A8714FF043
:1048B0000002794BC1E900233B6A03F57B614FF0AD
:1048C00000024FF00003C1E900233B6A03F6A8731E
:1048D000D3E90023C7E90C233B6AD3E90223C7E9E4
:1048E0000A2300237B620FE03A6A7B6A0233DB0013
:1048F0001344D3E900236948796AC9000144C1E936
:1049000000237B6A01337B627B6AB3F5F97FEBDDC1
:104910003B6A03F57B63D3E90023604901F57B61C2
:10492000C1E900235D4B03F6B8714FF000024FF070
:104930000003C1E90023594B03F6A8714FF00002B0
:104940004FF00003C1E90023D7E90E23D7E90A019C
:10495000FBF7B0FE02460B46C7E90A234F4B03F5AF
:104960007B63D3E900014FF000024FF00003FCF736
:10497000BFFA0346002B15D0D7E90C01FCF700FB6A
:104980000346013B454ADB001344D3E90001D7E964
:104990000A23FBF78FFE02460B46404901F6B87129
:1049A000C1E90023D7E90C01FCF7EAFA0346013B11
:1049B0003A4ADB00D118D7E90E23C1E9002334A31A
:1049C000D3E90023D7E90C01FCF792FA0346002B48
:1049D0000BD14FF00002304BD7E90C01FBF76AFE18
:1049E00002460B46C7E90C232BE04FF000022A4B8E
:1049F000C7E90C234FF000024FF00003C7E90A2378
:104A000040F2F1137B6219E0244A7B6ADB00134415
:104A1000D3E900017B6A0133204ADB001344D3E968
:104A20000023FBF747FE02460B461C48796AC90083
:104A30000144C1E900237B6A013B7B627B6A002B56
:104A4000E2DA164B03F57B63D3E900014FF0000275
:104A50004FF00003FCF74CFA0346002B10D00F4B2D
:104A600003F6B873D3E900014FF000020C4BFCF7DA
:104A700001F902460B46094901F6A871C1E9002374
:104A8000396AD7E90A23C1E9022300237B6219E0CE
:104A90000000000000307F400000F03F100F0020B9
:104AA00000407F40864A7B6ADB001344D3E9002341
:104AB000386A796A0231C9000144C1E900237B6A7E
:104AC00001337B627B6AB3F5F97FEBDD3B6A03F66A
:104AD000A871D7E90C23C1E90023794B03F57B6367
:104AE000D3E900014FF000024FF00003FCF728FA71
:104AF0000346002B11D0724B03F57B63D3E9000111
:104B00004FF000026F4BFBF7D3FD02460B46396AAC
:104B100001F57B61C1E9002308E03B6A03F57B6195
:104B20004FF000024FF00003C1E90023644B03F68D
:104B3000A873D3E90001644BD3E90E23FCF700FA14
:104B40000346002B20D05E4B03F6A873D3E9000187
:104B50005D4BD3E90E23FBF7ABFD02460B46104637
:104B60001946594BD3E91023FBF75AFF02460B466F
:104B700010461946544BD3E90A23FBF79BFD024626
:104B80000B46C7E90C2304E04F4BD3E90A23C7E9DE
:104B90000C234D4BD3E90C2301210C46D7E90C0122
:104BA000FCF7BAF90346002B01D100231C46E3B2FF
:104BB00083F00103DBB2002B10D0434B93ED0C7B51
:104BC000B0EE470AF0EE670A01F066FC0346002BE0
:104BD00004D13D4BD3E90C23C7E90C233A4BD3E96D
:104BE0000A2301210C46D7E90C01FCF79FF9034683
:104BF000002B01D100231C46E3B283F00103DBB29A
:104C0000002B10D0304B93ED0A7BB0EE470AF0EE4C
:104C1000670A01F041FC0346002B04D12A4BD3E97B
:104C20000A23C7E90C23294B03F58B5306331B7862
:104C3000002B0ED0254B03F58B53063300221A7040
:104C4000214BD3E91401214B03F58A531033C3E9F7
:104C500000011E4B03F58A531033D3E90023D7E933
:104C60000C01FCF76DF90346002B35D0164BD3E948
:104C70000C01154BD3E90A23FBF71AFD02460B463C
:104C800014461D46104BD3E916014FF00002104B9D
:104C9000FBF7C6FE02460B4620462946FBF7EAFF15
:104CA00002460B46C7E90A234FF00002094BD7E939
:104CB0000A01FBF7DFFF02460B46C7E90E2335E08A
:104CC000100F00200000F03F40040020E01E0020F4
:104CD0000000794000001040B74BD3E90C01B64BFF
:104CE000D3E90A23FBF7E4FC02460B4614461D46B3
:104CF000B14BD3E918014FF00002B04BFBF790FE27
:104D000002460B4620462946FBF7B4FF02460B46F7
:104D1000C7E90A234FF000024FF08043D7E90A01A8
:104D2000FBF7A8FF02460B46C7E90E23A44B03F589
:104D30008A531033D3E90023D7E90C01FBF7B8FC01
:104D400002460B46C7E90C239B4BD3E90C019A4B57
:104D5000D3E90A23FBF7ACFC02460B46D7E90C016A
:104D6000FBF788FF02460B46D7E90A01FBF758FE1E
:104D700002460B46C7E90A2397ED0A0B05F068FBCC
:104D800053EC102BD7E90E01FCF7DAF80346002BA1
:104D90002ED097ED0C0B05F05BFBB0EE407AF0EEF9
:104DA000607A884B03F57B6383ED007B854B03F5CD
:104DB0007B63D3E900017EA3D3E90023FCF7C0F8AD
:104DC0000346002B14D0D7E90C23D7E90E01FBF7DB
:104DD00027FE02460B46104619467A4B03F57B63C5
:104DE000D3E90023FBF746FF02460B46C7E90A2337
:104DF000734B03F58A531033D3E90001D7E90A2333
:104E0000FBF758FC02460B46104619466C4B03F55F
:104E10008A531033C3E90001674BD3E90C01684B97
:104E200003F58A531033D3E90023FCF775F80346E2
:104E3000002B0ED1624B03F58A53103393ED007BA8
:104E4000B0EE470AF0EE670A01F026FB0346002B9E
:104E500008D0594BD3E90C01594B03F58A53103351
:104E6000C3E90001544BD3E90A01554B03F58A53BA
:104E70001033D3E90023FCF759F80346002B0ED179
:104E80004F4B03F58A53103393ED007BB0EE470A86
:104E9000F0EE670A01F000FB0346002B08D0464BFA
:104EA000D3E90A01464B03F58A531033C3E90001E5
:104EB000434B03F581531833D3E900013E4BD3E94B
:104EC0000223FCF715F80346002B08D13A4BD3E92F
:104ED00002013B4B03F581531833C3E90001384B02
:104EE00003F5815310331B681846FDF787FB034613
:104EF0007B71334B03F582531833D3E900012E4BFA
:104F0000D3E90023FBF7F4FF0346002B08D12A4B1B
:104F1000D3E900012A4B03F582531833C3E900019A
:104F2000274B03F5825310331B681846FDF766FBC9
:104F30000346BB71224B03F58A5318331B68B3F148
:104F4000FF3F0AD01E4B03F58A5318331B685A1CC7
:104F50001B4B03F58A5318331A60194B03F58B5317
:104F600005331B78002B34D1154B03F58B530533D8
:104F700001221A70124B03F58A531C3305221A7052
:104F80000F4B03F58A53183300221A600D4B002291
:104F900083F8C42F0B4B002283F8C52F094B002246
:104FA00083F8C62F074B002283F8C32F0CE000BF05
:104FB0007B14AE47E17A843F400400200000794032
:104FC000E01E0020100F0020C14B002283F8C72FE5
:104FD000DEE3C04B03F58A531C331B78013B092BDE
:104FE00000F2D68301A252F823F000BF1550000052
:104FF0001F50000029500000C95100008D530000CF
:10500000D3530000D95300009B5500007B5700008C
:1050100085570000BB1D1846FEF76EF9B8E3BB1DAF
:105020001846FEF7B5FAB3E3AB4BD3E922014FF0D4
:105030000002AA4BFBF75CFF0346002B0CD1A54BEB
:1050400003F58A531D3300221A70A24B03F58A53CD
:105050001C3306221A709BE39E4B03F58A531D33C3
:105060001B78012B02D0022B5AD091E3984B0122DE
:1050700083F8C52F964B002283F8C32F944B01224F
:1050800083F8C02F924B012283F8C62F914B03F572
:105090008A5318331C68904BD3E90A238AA1D1E9BB
:1050A0000001FBF7E7FD02460B46104619468A4B06
:1050B000D3E91C23FBF7FCFA02460B4643EC172B03
:1050C000B0EE470AF0EE670A05F042F953EC102BF8
:1050D00010461946FBF77CFF03469C4270D37D4B7C
:1050E00003F58A531D3302221A707A4B03F58A5353
:1050F000183300221A60764B002283F8C02F744BBD
:10510000012283F8C32F724B002283F8C62F704B05
:10511000002283F8C12F6E4B002283F8C22F4FE08C
:105120006B4B002283F8C02F694B012283F8C52FF7
:10513000674B012283F8C32F654B002283F8C62FEB
:10514000634B002283F8C12F614B002283F8C22FEA
:10515000604B03F58A5318331C685F4B93ED1C7B3F
:10516000B0EE470AF0EE670A05F0F2F853EC102BA8
:1051700010461946FBF72CFF03469C4222D3554BA1
:1051800003F58A531D3301221A70524B03F58A53DB
:10519000183300221A604E4B002283F8C32F4E4B67
:1051A000D3E91A234A4901F69871C1E90023484B13
:1051B000012283F8C02F464B012283F8C62F01E05D
:1051C00000BFE5E200BFE3E2434BD3E922014FF029
:1051D0000002434BFBF78CFE0346002B0CD13D4BEA
:1051E00003F58B53013300221A703A4B03F58A53AF
:1051F0001C3306221A70CBE2364B03F58B53013376
:105200001B78012B02D0022B6CD0C1E2304B012263
:1052100083F8C52F2E4B002283F8C32F2C4B01227D
:1052200083F8C02F2A4B012283F8C62F294B03F5A0
:105230008A5318331C68274B03F58A531033D3E97C
:10524000002321A1D1E90001FBF714FD02460B4622
:1052500010461946204BD3E91C23FBF729FA0246D6
:105260000B4643EC172BB0EE470AF0EE670A05F049
:105270006FF853EC102B10461946FBF7A9FE0346B6
:105280009C427FD3134B03F58B53013302221A70D8
:10529000104B03F58A53183300221A600C4B00227E
:1052A00083F8C02F0A4B012283F8C32F084B00223A
:1052B00083F8C62F064B002283F8C12F044B00222F
:1052C00083F8C22F5EE000BF00000000004CED40FC
:1052D000100F0020E01E0020400400200000F03FDE
:1052E00000001440C04B002283F8C02FBE4B0122A7
:1052F00083F8C52FBC4B012283F8C32FBA4B002281
:1053000083F8C62FB84B002283F8C12FB64B00227A
:1053100083F8C22FB54B03F58A5318331C68B44B7E
:1053200093ED1C7BB0EE470AF0EE670A05F010F82B
:1053300053EC102B10461946FBF74AFE03469C42DD
:1053400022D3AA4B03F58B53013301221A70A74BCA
:1053500003F58A53183300221A60A34B002283F806
:10536000C32FA34BD3E91A239F4901F69871C1E9D2
:1053700000239D4B012283F8C02F9B4B012283F811
:10538000C62F01E000BF03E200BF01E2964B0022FE
:1053900083F8C42F944B002283F8C52F924B002230
:1053A00083F8C62F904B002283F8C32F8E4B002228
:1053B00083F8C72F8D4B03F58A5318331B68632B73
:1053C00040F2E581894B03F58A531C3306221A709B
:1053D000DDE1FEF75DFADBE1854BD3E922014FF019
:1053E00000024FF08043FBF783FD0346002B0CD1F6
:1053F0007E4B03F58A531E3300221A707B4B03F554
:105400008A531C3306221A70C2E1784B03F58A5383
:105410001E331B78012B02D0022B62D0B8E1724BF5
:10542000002283F8C32F704B002283F8C42F6E4BE9
:10543000012283F8C02F6C4B012283F8C52F6A4BE1
:10544000002283F8C12F684B002283F8C22F664BDD
:10545000002283F8C62F644B012283F8C72F634BC9
:1054600003F58A5318331C68614BD3E90A235CA106
:10547000D1E90001FBF7FEFB02460B461046194638
:105480005B4BD3E91C23FBF713F902460B4643ECB5
:10549000172BB0EE470AF0EE670A04F059FF53EC01
:1054A000102B10461946FBF793FD03469C4270D320
:1054B0004E4B03F58A531E3302221A704B4B03F5F1
:1054C0008A53183300221A60474B002283F8C02FFA
:1054D000454B002283F8C72F434B012283F8C42F8A
:1054E00057E0414B002283F8C02F3F4B012283F845
:1054F000C52F3D4B002283F8C32F3B4B002283F87E
:10550000C62F394B002283F8C12F374B002283F876
:10551000C22F354B002283F8C72F334B012283F86B
:10552000C42F324B03F58A5318331C68304B93ED6C
:105530001C7BB0EE470AF0EE670A04F009FF53EC5B
:10554000102B10461946FBF743FD03469C4222D31D
:10555000264B03F58A531E3301221A70234B03F5A1
:105560008A53183300221A601F4B002283F8C42F7D
:105570001F4BD3E91A231C4901F69871C1E9002396
:10558000194B012283F8C02F174B012283F8C72F34
:1055900001E000BFFCE000BFFAE0154BD3E92201B7
:1055A0004FF00002134BFBF7A3FC0346002B0CD17A
:1055B0000E4B03F58B53023300221A700B4B03F58D
:1055C0008A531C3306221A70E2E0084B03F58B5312
:1055D00002331B78012B0FD0022B72D0D8E000BF12
:1055E00000000000004CED40100F0020E01E0020E5
:1055F0004004002000001840C54B002283F8C32F50
:10560000C34B002283F8C42FC14B012283F8C02F63
:10561000BF4B012283F8C52FBD4B002283F8C12F59
:10562000BB4B002283F8C22FB94B002283F8C62F50
:10563000B74B012283F8C72FB64B03F58A531833B3
:105640001C68B44B03F58A531033D3E90023AEA191
:10565000D1E90001FBF70EFB02460B461046194646
:10566000AD4BD3E91C23FBF723F802460B4643EC72
:10567000172BB0EE470AF0EE670A04F069FE53EC10
:10568000102B10461946FBF7A3FC03469C4270D32F
:10569000A04B03F58B53023302221A709D4B03F586
:1056A0008A53183300221A60994B002283F8C02FC6
:1056B000974B002283F8C72F954B012283F8C42F04
:1056C00057E0934B002283F8C02F914B012283F8BF
:1056D000C52F8F4B002283F8C32F8D4B002283F8F8
:1056E000C62F8B4B002283F8C12F894B002283F8F1
:1056F000C22F874B002283F8C72F854B012283F8E6
:10570000C42F844B03F58A5318331C68824B93EDE6
:105710001C7BB0EE470AF0EE670A04F019FE53EC6A
:10572000102B10461946FBF753FC03469C4222D32C
:10573000784B03F58B53023301221A70754B03F536
:105740008A53183300221A60714B002283F8C42F49
:10575000714BD3E91A236E4901F69871C1E9002310
:105760006B4B012283F8C02F694B012283F8C72FAE
:1057700001E000BF0CE000BF0AE07B1D1846FEF709
:10578000AFFA05E07B1D1846FEF756FC00E000BFAF
:10579000604B03F5865314331B685D4A92F8C02FA3
:1057A00011461846FCF762FF5A4B03F58853103335
:1057B0001B68574A92F8C12F11461846FCF756FF4E
:1057C000544B03F5895304331C68534BD3E926012A
:1057D0004F4B03F69873D3E90023FBF721F90246F8
:1057E0000B4643EC172BB0EE470AF0EE670A204653
:1057F000FDF7A8FC474B03F586531B68444A92F813
:10580000C22F11461846FCF731FF424B03F5855372
:105810000C331B683E4A92F8C32F11461846FCF71A
:1058200025FF3C4B03F5845318331B68384A92F824
:10583000C42F11461846FCF719FF364B03F5845365
:1058400004331B68324A92F8C52F11461846FCF7FC
:105850000DFF304B03F5835310331B682C4A92F82D
:10586000C62F11461846FCF701FF2A4B03F5875354
:105870001C331B68264A92F8C72F11461846FCF7BE
:10588000F5FE244B03F5875308331B68204A92F832
:10589000C82F11461846FCF7E9FE1E4B03F58A5344
:1058A0000C331C681C4BD3E92801194B03F57A63B0
:1058B000D3E90023FBF7B4F802460B4643EC172B61
:1058C000B0EE470AF0EE670A2046FDF73BFC114BAD
:1058D00003F5895318331C680F4BD3E92C010E4B89
:1058E000D3E92A23FBF79CF802460B4643EC172B1F
:1058F000B0EE470AF0EE670A2046FDF723FC00BF32
:105900004037BD46B0BD00BF00000000004CED4078
:10591000100F0020E01E00204004002000000000C6
:1059200080B586B000AF082000F072FD274B03F56C
:105930008B53063301221A70254BD3E91201234BF6
:1059400003F58A531033C3E90001204B0022C3F84A
:10595000F42F1E4B03F580530C3300221A601B4BAF
:1059600003F58053083300221A70184B002283F885
:10597000F02F174BD3E90423144901F58051C1E9F5
:1059800000231448FEF710FD104B00225A600F4B05
:105990004FF0FF321A630D4B4FF0FF325A630B4B3F
:1059A00000221A700948FEF7A7FD084BDB6A3B612D
:1059B0003B691B68012B32D139694FF000024FF06F
:1059C0000003C1E9022300237B6113E0E01E0020F5
:1059D00040040020D02E00203A697B690233DB00AE
:1059E000D1184FF000024FF00003C1E900237B699A
:1059F00001337B617B69B3F5F97FEDDD3B6903F62C
:105A0000A8714FF00002BE4BC1E900233B6903F5CA
:105A10007B614FF000024FF00003C1E90023B94B56
:105A200003F5815300221A70B74BD3E90201B54B3D
:105A300003F581531833C3E90001B44BFB60B14B4C
:105A400003F58153043301221A6000210120FCF781
:105A500065FD0246FB681A61AA4B03F581530833C2
:105A600001221A70A74B03F5825300221A70A64B2D
:105A7000D3E90001A34B03F582531833C3E90001B6
:105A8000A34BFB609F4B03F58253043301221A6042
:105A900000210020FCF742FD0246FB681A61994B89
:105AA00003F58253083301221A70964B03F586538F
:105AB000043300221A70974BBB60924B03F5865358
:105AC000083301221A6001210220FCF727FD02465B
:105AD000BB681A618B4B03F586530C3301221A7095
:105AE000884B03F5885300221A708B4BBB60854BA3
:105AF00003F58853043301221A6001210420FCF7C6
:105B00000DFD0246BB681A617E4B03F588530833CE
:105B100001221A707B4B03F58853143300221A704C
:105B20007E4B7B60774B03F58853183301221A6054
:105B30009FED6F1B9FED700B0520FDF747FA0246A6
:105B40007B681A616F4B03F5895304331B68184651
:105B5000FDF7EEFA6B4B03F588531C3301221A70E4
:105B6000684B03F58553103300221A706C4BBB60F1
:105B7000644B03F58553143301221A600121072079
:105B8000FCF7CCFC0246BB681A615E4B03F58553FB
:105B9000183301221A705B4B03F584531C33002227
:105BA0001A70604BBB60574B03F5855301221A6096
:105BB00001210820FCF7B2FC0246BB681A61514B78
:105BC00003F58553043301221A704E4B03F58453B9
:105BD000083300221A70544BBB604A4B03F58453C0
:105BE0000C3301221A6001210920FCF797FC0246C0
:105BF000BB681A61434B03F58453103301221A70BA
:105C0000404B03F58353143300221A70474BBB609B
:105C10003C4B03F58353183301221A6001210A20FB
:105C2000FCF77CFC0246BB681A61364B03F58353D4
:105C30001C3301221A70334B03F5835300221A7070
:105C40003B4BBB602F4B03F58353043301221A6097
:105C500001210B20FCF762FC0246BB681A61294B4C
:105C600003F58353083301221A70264B03F587533B
:105C70000C3300221A702F4BBB60224B03F5875365
:105C8000103301221A6001210C20FCF747FC024668
:105C9000BB681A611B4B03F58753143301221A703A
:105CA000184B03F58653183300221A70224BBB6041
:105CB000144B03F586531C3301221A6001210D2079
:105CC000FCF72CFC0246BB681A610E4B03F58753A8
:105CD00001221A700B4B03F589531C3300221A70F2
:105CE000164B7B60074B03F58A5301221A6027E0AD
:105CF00000000000000000000000000000409F4085
:105D00000000F03FE01E002040040020002F002093
:105D1000202F0020A42F0020E02F0020F42F0020AF
:105D2000902F00207C2F0020682F0020542F00206F
